{
  "contractName": "TodoList",
  "abi": [
    {
      "inputs": [
        {
          "internalType": "string",
          "name": "todoDescription",
          "type": "string"
        }
      ],
      "name": "addTodoItem",
      "outputs": [
        {
          "internalType": "uint256",
          "name": "",
          "type": "uint256"
        }
      ],
      "stateMutability": "nonpayable",
      "type": "function"
    },
    {
      "inputs": [],
      "name": "getTodoItems",
      "outputs": [
        {
          "components": [
            {
              "internalType": "uint256",
              "name": "id",
              "type": "uint256"
            },
            {
              "internalType": "string",
              "name": "text",
              "type": "string"
            },
            {
              "internalType": "enum CompletitionState",
              "name": "state",
              "type": "uint8"
            }
          ],
          "internalType": "struct TodoItem[]",
          "name": "",
          "type": "tuple[]"
        }
      ],
      "stateMutability": "view",
      "type": "function",
      "constant": true
    },
    {
      "inputs": [
        {
          "internalType": "uint256",
          "name": "todoItemId",
          "type": "uint256"
        },
        {
          "internalType": "enum CompletitionState",
          "name": "newState",
          "type": "uint8"
        }
      ],
      "name": "updateTodoItemState",
      "outputs": [
        {
          "internalType": "bool",
          "name": "",
          "type": "bool"
        }
      ],
      "stateMutability": "nonpayable",
      "type": "function"
    }
  ],
  "bytecode": "0x608060405234801561001057600080fd5b50610c52806100206000396000f3fe608060405234801561001057600080fd5b50600436106100415760003560e01c80633b73a1921461004657806379f2d5e314610064578063f5627cd414610094575b600080fd5b61004e6100c4565b60405161005b919061086f565b60405180910390f35b61007e600480360381019061007991906109da565b610236565b60405161008b9190610a32565b60405180910390f35b6100ae60048036038101906100a99190610a9e565b610363565b6040516100bb9190610af9565b60405180910390f35b60606000803373ffffffffffffffffffffffffffffffffffffffff1673ffffffffffffffffffffffffffffffffffffffff168152602001908152602001600020805480602002602001604051908101604052809291908181526020016000905b8282101561022d57838290600052602060002090600302016040518060600160405290816000820154815260200160018201805461016190610b43565b80601f016020809104026020016040519081016040528092919081815260200182805461018d90610b43565b80156101da5780601f106101af576101008083540402835291602001916101da565b820191906000526020600020905b8154815290600101906020018083116101bd57829003601f168201915b505050505081526020016002820160009054906101000a900460ff16600281111561020857610207610712565b5b600281111561021a57610219610712565b5b8152505081526020019060010190610124565b50505050905090565b60008082511161024557600080fd5b60008060003373ffffffffffffffffffffffffffffffffffffffff1673ffffffffffffffffffffffffffffffffffffffff16815260200190815260200160002090506001600081548092919061029a90610ba4565b9190505550600060405180606001604052806001548152602001858152602001600060028111156102ce576102cd610712565b5b815250905081819080600181540180825580915050600190039060005260206000209060030201600090919091909150600082015181600001556020820151816001019080519060200190610324929190610591565b5060408201518160020160006101000a81548160ff021916908360028111156103505761034f610712565b5b0217905550505060015492505050919050565b6000806000803373ffffffffffffffffffffffffffffffffffffffff1673ffffffffffffffffffffffffffffffffffffffff16815260200190815260200160002090506000818054905090506000600190506000805b83811080156103c55750825b1561058357878582815481106103de576103dd610bed565b5b906000526020600020906003020160000154141561057057600085828154811061040b5761040a610bed565b5b906000526020600020906003020190506000935087600281111561043257610431610712565b5b8160020160009054906101000a900460ff16600281111561045657610455610712565b5b1415801561053857506000600281111561047357610472610712565b5b8160020160009054906101000a900460ff16600281111561049757610496610712565b5b1480156104c85750600160028111156104b3576104b2610712565b5b8860028111156104c6576104c5610712565b5b145b806105375750600160028111156104e2576104e1610712565b5b8160020160009054906101000a900460ff16600281111561050657610505610712565b5b148015610536575060028081111561052157610520610712565b5b88600281111561053457610533610712565b5b145b5b5b1561056e57878160020160006101000a81548160ff0219169083600281111561056457610563610712565b5b0217905550600192505b505b808061057b90610ba4565b9150506103b9565b508094505050505092915050565b82805461059d90610b43565b90600052602060002090601f0160209004810192826105bf5760008555610606565b82601f106105d857805160ff1916838001178555610606565b82800160010185558215610606579182015b828111156106055782518255916020019190600101906105ea565b5b5090506106139190610617565b5090565b5b80821115610630576000816000905550600101610618565b5090565b600081519050919050565b600082825260208201905092915050565b6000819050602082019050919050565b6000819050919050565b61067381610660565b82525050565b600081519050919050565b600082825260208201905092915050565b60005b838110156106b3578082015181840152602081019050610698565b838111156106c2576000848401525b50505050565b6000601f19601f8301169050919050565b60006106e482610679565b6106ee8185610684565b93506106fe818560208601610695565b610707816106c8565b840191505092915050565b7f4e487b7100000000000000000000000000000000000000000000000000000000600052602160045260246000fd5b6003811061075257610751610712565b5b50565b600081905061076382610741565b919050565b600061077382610755565b9050919050565b61078381610768565b82525050565b60006060830160008301516107a1600086018261066a565b50602083015184820360208601526107b982826106d9565b91505060408301516107ce604086018261077a565b508091505092915050565b60006107e58383610789565b905092915050565b6000602082019050919050565b600061080582610634565b61080f818561063f565b93508360208202850161082185610650565b8060005b8581101561085d578484038952815161083e85826107d9565b9450610849836107ed565b925060208a01995050600181019050610825565b50829750879550505050505092915050565b6000602082019050818103600083015261088981846107fa565b905092915050565b6000604051905090565b600080fd5b600080fd5b600080fd5b600080fd5b7f4e487b7100000000000000000000000000000000000000000000000000000000600052604160045260246000fd5b6108e7826106c8565b810181811067ffffffffffffffff82111715610906576109056108af565b5b80604052505050565b6000610919610891565b905061092582826108de565b919050565b600067ffffffffffffffff821115610945576109446108af565b5b61094e826106c8565b9050602081019050919050565b82818337600083830152505050565b600061097d6109788461092a565b61090f565b905082815260208101848484011115610999576109986108aa565b5b6109a484828561095b565b509392505050565b600082601f8301126109c1576109c06108a5565b5b81356109d184826020860161096a565b91505092915050565b6000602082840312156109f0576109ef61089b565b5b600082013567ffffffffffffffff811115610a0e57610a0d6108a0565b5b610a1a848285016109ac565b91505092915050565b610a2c81610660565b82525050565b6000602082019050610a476000830184610a23565b92915050565b610a5681610660565b8114610a6157600080fd5b50565b600081359050610a7381610a4d565b92915050565b60038110610a8657600080fd5b50565b600081359050610a9881610a79565b92915050565b60008060408385031215610ab557610ab461089b565b5b6000610ac385828601610a64565b9250506020610ad485828601610a89565b9150509250929050565b60008115159050919050565b610af381610ade565b82525050565b6000602082019050610b0e6000830184610aea565b92915050565b7f4e487b7100000000000000000000000000000000000000000000000000000000600052602260045260246000fd5b60006002820490506001821680610b5b57607f821691505b60208210811415610b6f57610b6e610b14565b5b50919050565b7f4e487b7100000000000000000000000000000000000000000000000000000000600052601160045260246000fd5b6000610baf82610660565b91507fffffffffffffffffffffffffffffffffffffffffffffffffffffffffffffffff821415610be257610be1610b75565b5b600182019050919050565b7f4e487b7100000000000000000000000000000000000000000000000000000000600052603260045260246000fdfea264697066735822122029df9dfd218bc8cda04248854c44dd401f9ddaea7fcaadd68fd97975e1ef106f64736f6c63430008090033",
  "immutableReferences": {},
  "source": "// SPDX-License-Identifier: MIT\npragma solidity ^0.8.9;\n\n/**\n * @dev State of completition of the To-Do items.\n */\nenum CompletitionState {\n    ToBeDone,\n    InProgress,\n    Completed\n}\n\n/**\n * @dev The To-Do item itself.\n */\nstruct TodoItem {\n    // The item id.\n    uint id;\n\n    // What action should be performed.\n    string text;\n\n    // Flag controlling the state of completion of the item.\n    CompletitionState state;\n}\n\n/**\n * @title Smart Contract for storing To-Do lists.\n * @author Tommaso Azzalin\n */\ncontract TodoList {\n    // This structure stores all the To-Do item by all accounts.\n    mapping(address => TodoItem[]) private todoLists;\n\n    // This counter contains the total amount of To-Do items currently stored.\n    uint storedItemsTotal;\n\n    /**\n     * @dev Adds the To-Do item to the list of items of the account.\n     * @param todoDescription the action to perform and that we want to control its status.\n     * @return the unique identifier of the To-Do item.\n     */\n    function addTodoItem(string memory todoDescription) external returns (uint) {\n        require(bytes(todoDescription).length > 0);\n\n        TodoItem[] storage usersItems = todoLists[msg.sender];\n\n        storedItemsTotal++;\n\n        TodoItem memory newItem = TodoItem({\n            id: storedItemsTotal,\n            text: todoDescription,\n            state: CompletitionState.ToBeDone\n        });\n        \n        usersItems.push(newItem);\n\n        return storedItemsTotal;\n    }\n\n    /**\n     * @dev Returns the list of To-Do items of the sender account.\n     * @return the To-Do items of the account.\n     */\n    function getTodoItems() external view returns (TodoItem[] memory) {\n        return todoLists[msg.sender];\n    }\n\n    /**\n     * @dev Adds the To-Do item to the list of items of the account.\n     * @param todoItemId the unique identifier returned by the contract function `addTodoItem(todoDescription)`.\n     * @param newState the new completition state (can only be larger than the current one.\n     * @return `true` if the status was updated, `false` otherwise.\n     */\n    function updateTodoItemState(uint todoItemId, CompletitionState newState) external returns (bool) {\n        TodoItem[] storage usersItems = todoLists[msg.sender];\n        \n        uint itemCount = usersItems.length;\n        bool notFound = true;\n        bool updatedState = false;\n        for(uint i = 0; i < itemCount && notFound; i++) {\n            if(usersItems[i].id == todoItemId) {\n                TodoItem storage toUpd8 = usersItems[i];\n                notFound = false;\n\n                if(toUpd8.state != newState && (\n                    (toUpd8.state == CompletitionState.ToBeDone && newState == CompletitionState.InProgress) ||\n                    (toUpd8.state == CompletitionState.InProgress && newState == CompletitionState.Completed)\n                ))  {\n                    toUpd8.state = newState;\n                    updatedState = true;\n                }\n            }\n        }\n\n        return updatedState;\n    }\n}",
  "sourcePath": "/Users/tommaso/Progetti/web3-demo/contracts/TodoList.sol",
  "compiler": {
    "name": "solc",
    "version": "0.8.9+commit.e5eed63a.Emscripten.clang"
  },
  "schemaVersion": "3.4.4",
  "updatedAt": "2021-12-31T07:39:24.035Z",
  "networkType": "ethereum",
  "devdoc": {
    "author": "Tommaso Azzalin",
    "kind": "dev",
    "methods": {
      "addTodoItem(string)": {
        "details": "Adds the To-Do item to the list of items of the account.",
        "params": {
          "todoDescription": "the action to perform and that we want to control its status."
        },
        "returns": {
          "_0": "the unique identifier of the To-Do item."
        }
      },
      "getTodoItems()": {
        "details": "Returns the list of To-Do items of the sender account.",
        "returns": {
          "_0": "the To-Do items of the account."
        }
      },
      "updateTodoItemState(uint256,uint8)": {
        "details": "Adds the To-Do item to the list of items of the account.",
        "params": {
          "newState": "the new completition state (can only be larger than the current one.",
          "todoItemId": "the unique identifier returned by the contract function `addTodoItem(todoDescription)`."
        },
        "returns": {
          "_0": "`true` if the status was updated, `false` otherwise."
        }
      }
    },
    "title": "Smart Contract for storing To-Do lists.",
    "version": 1
  },
  "userdoc": {
    "kind": "user",
    "methods": {},
    "version": 1
  }
}